:03000000020008F3
:0300670002000391
:0300030002006A8E
:10006A001200C79006007401F0E4A3F090C2007574
:10007A00F001E41200DF758200120FF87582011296
:10008A000FF8120679900B1CE4F0A3F0900B1EF007
:10009A00900B1FF0900B20F0900B21F0A3F07582CB
:1000AA0008121CDAE5C120E609850882850983124F
:0D00BA000006121C30121B061210A080E779
:060061007508007509F4AA
:1000C70075A15575A1AA53B3E043B30675B2D875A8
:1000D700A1FF900007020608AF82AE83ADF0FC9047
:1000E7000602EFF0EEA3F0EDA3F0ECA3F09006000C
:1000F700E0F5F0A3E045F0600C43C60143C40843B4
:10010700C50C43CE10C29FD29EC29DD29C4387800E
:10011700900602E0FCA3E0FDA3E0FEA3E0FF900B46
:1001270030ECF0EDA3F0EEA3F0EFA3F0908D807527
:10013700F05BE4121E9CAC82AD830CBC00010DED9C
:10014700C313CC13CC740F55894420F58943C9A038
:10015700C3E49CFC8C8DD28ED2992210980280FB2E
:1001670085998222E582900606F0E0F5993099FD9F
:10017700D29922E582900609F090060A74C4F074B9
:1001870000A3F07440A3F090060D74BAF07400A3B6
:10019700F07440A3F090061074BCF07400A3F074E0
:1001A70040A3F090061374BEF07400A3F07440A34C
:1001B700F090061674C5F07400A3F07440A3F09095
:1001C700061974BBF07400A3F07440A3F090061CEA
:1001D70074BDF07400A3F07440A3F090061F74BFC1
:1001E700F07400A3F07440A3F0900608E0FF24F930
:1001F700500122EF2F2F900201730202160202997B
:1002070002031E0203790203FB0204810205059023
:100217000609E0FFFE8EF005F07401800225E0D5A7
:10022700F0FBF4ADC65DF5C6EF75F003A4FFAEF0C5
:10023700240AF582EE3406F583E0FBA3E0FCA3E095
:10024700FD8B828C838DF0122A3BFA900607E0F92A
:1002570089F005F07401800225E0D5F0FBF4F9522E
:10026700028B828C838DF0EA121F90EF2416F582A1
:10027700EE3406F583E0FDA3E0FEA3E0FF8D828E5A
:10028700838FF0122A3B52018D828E838FF0E90211
:100297001F90900609E0FFFE8EF005F074018002C2
:1002A70025E0D5F0FBF4ADC65DF5C6EF75F003A408
:1002B700FFAEF0240AF582EE3406F583E0FBA3E0F7
:1002C700FCA3E0FD8B828C838DF0122A3BFA90060B
:1002D70007E0F989F005F07401800225E0D5F0FB0D
:1002E700F9F4F8EA52008B828C838DF0E8121F90A4
:1002F700EF2416F582EE3406F583E0FDA3E0FEA3B6
:10030700E0FF8D828E838FF0122A3B42018D828E11
:10031700838FF0E9021F90900609E0FFFE8EF0053B
:10032700F07401800225E0D5F0FBF4ADC65DF5C69B
:10033700EF75F003A4240AF582740635F0F583E01F
:10034700FDA3E0FEA3E0FF8D828E838FF0122A3B90
:10035700FC900607E0FB8BF005F07401800225E0B6
:10036700D5F0FBF4FBEC42038D828E838FF0EB021A
:100377001F90900609E0FFFE8EF005F074018002E1
:1003870025E0D5F0FBADC64DF5C6EF75F003A4FF2C
:10039700AEF0240AF582EE3406F583E0FBA3E0FC19
:1003A700A3E0FD8B828C838DF0122A3BFA9006071F
:1003B700E0F989F005F07401800225E0D5F0FBF43F
:1003C700F952028B828C838DF0EA121F90EF24166C
:1003D700F582EE3406F583E0FDA3E0FEA3E0FF8D92
:1003E700828E838FF0122A3B52018D828E838FF08B
:1003F700E9021F90900609E0FFFE8EF005F07401F8
:10040700800225E0D5F0FBADC64DF5C6EF75F003CC
:10041700A4FFAEF0240AF582EE3406F583E0FBA3D1
:10042700E0FCA3E0FD8B828C838DF0122A3BFA90CF
:100437000607E0F989F005F07401800225E0D5F0A0
:10044700FBF942028B828C838DF0EA121F90EF2416
:1004570016F582EE3406F583E0FDA3E0FEA3E0FF88
:100467008D828E838FF0122A3BFCE9F4F9EC52015E
:100477008D828E838FF0E9021F90900609E0FFFEC0
:100487008EF005F07401800225E0D5F0FBADC64D76
:10049700F5C6EF75F003A4FFAEF0240AF582EE343B
:1004A70006F583E0FBA3E0FCA3E0FD8B828C838D44
:1004B700F0122A3BFA900607E0F989F005F074017B
:1004C700800225E0D5F0FBF9F4F8EA52008B828C24
:1004D700838DF0E8121F90EF2416F582EE3406F5AF
:1004E70083E0FDA3E0FEA3E0FF8D828E838FF012F1
:1004F7002A3B42018D828E838FF0E9021F9090067E
:1005070009E0FFFE8EF005F07401800225E0D5F0CA
:10051700FBADC64DF5C6EF75F003A4FFAEF0240A98
:10052700F582EE3406F583E0FBA3E0FCA3E0FD8B48
:10053700828C838DF0122A3BFA900607E0F989F046
:1005470005F07401800225E0D5F0FBF942028B82A9
:100557008C838DF0EA121F90EF2416F582EE340695
:10056700F583E0FDA3E0FEA3E0FF8D828E838FF08D
:10057700122A3B42018D828E838FF0E9021F90AFD2
:1005870083E582900622F0EFA3F010990280FB909A
:100597000622E0FEA3E0FF8E998E828F83221098B9
:1005A7000280FBAE997F008E828F8322AF83E58224
:1005B700900624F0EFA3F0900624E0FEA3E0FFEE00
:1005C7004F603505A105A105A105A105A105A10557
:1005D700A105A105A105A105A105A105A105A105E4
:1005E700A105A105A105A105A11EBEFF011F90063A
:1005F70024EEF0EFA3F080C7900624EEF0EFA3F00F
:1006070022AF83E582900626F0EFA3F0900626E05E
:10061700FEA3E0FFEE4F601D9003E8C007C006127F
:1006270005B3D006D0071EBEFF011F900626EEF0C9
:10063700EFA3F080DF900626EEF0EFA3F022E5822D
:1006470090082FF0E0FF75F003A4FDAEF02429F524
:1006570082EE3408F583E4F0ED2429FDEE3408FE3C
:100667008D828E83A3E4F0EF600475E5002275E4C4
:100677000022C2EA75E28075E3009024477448F0CF
:1006870090244CE4F0A3F090244E04F0E4A3F0F59A
:10069700D4F5D675E28975D24075D8FF75820012F8
:1006A700064575820112064575E10322E582900829
:1006B70030F0E5E35480FFE0547F4FF5E322E58215
:1006C700900831F0E0600753E2BF53D27F2243E244
:1006D7004022E582900832F09006287408F075826F
:1006E700001206B37582011206C5900832E0FFE0DA
:1006F700701374FB55E44402F5E490000F120608EA
:1007070053E4FD8014BF011174FB55E54402F5E580
:1007170090000F12060853E5FD9000FA1205B3C2C8
:10072700D822E582900833F0E075F003A42429FE6F
:10073700740835F0FF8E828F83E0FDBD01005007FE
:100747008E828F837401F0900833E0FF7049E5DBF8
:1007570020E3030207E7E5E420E035E5DB30E21AB2
:10076700EF75F003A42429FD740835F0FE8D828E01
:1007770083A3A3E4F043E4048016EF75F003A424F5
:1007870029FD740835F0FE8D828E83A3A37401F0D2
:1007970043E40175820022BF0146E5DB30E741E50E
:1007A700E520E035E5DB30E61AEF75F003A42429F0
:1007B700FD740835F0FE8D828E83A3A3E4F043E534
:1007C700048016EF75F003A42429FE740835F0FFA2
:1007D7008E828F83A3A37401F043E5017582002203
:1007E70075821622E582900835F0E075F003A4249F
:1007F70029FE740835F0FF8E828F83A3E0F582C04F
:1008070007C0061206B3D006D0078E828F83A3A334
:10081700E0F5820206C5E582900839F0900836E0D7
:10082700FF8FD48FD690083AE4F0A3F0900839E010
:10083700FEC4540FFDBD0103ED8001E4F50DE4BDD9
:10084700090104F50E900837E0F9A3E0FA8ED5C246
:10085700D9750AC8750B00E50A450B602820D9250C
:10086700900001C007C006C005C002C0011205B351
:10087700D001D002D005D006D007150A74FFB50AFB
:1008870002150B80D275D50020D9047582FE22206F
:10089700D90302099530DE0475820022E5D9540F89
:1008A700F50C740EB50C0474018001E4F50A6007B9
:1008B7007420450CF58222740AB50C04740180017A
:1008C700E4F86033E94A700A7420450CF50D850D8C
:1008D7008222C3E994FFEA94FF500519B9FF011A70
:1008E70090083AE024FFFBA3E034FFFC90083AEBC2
:1008F700F0ECA3F0020998E50D700CE50E7034BD1D
:100907000D02800302099130DE0475820022740211
:10091700B50C0475820022E50A7003E860077420AD
:10092700450CF58222E50C70030209987420450CEA
:10093700F5822230DE0475820022EF6011740BB558
:100947000C0474018001E424FFE433FC8010740379
:10095700B50C0474018001E4FB24FFE433FCEC6074
:100967000475820022E50A7003E860077420450CCD
:10097700F582227403B50C07740BB50C028012E5DF
:100987000C600E7420450CF582227582FE2275D804
:10099700FF90000FC007C006C005C002C0011205C6
:1009A700B3D001D002D005D006D00790083AE02492
:1009B70001F0A3E03400F090083AE0FBA3E0FCC3A9
:1009C700EB94C8EC9400500302085475822022AFC0
:1009D70083E582900841F0EFA3F0900841E0FEA381
:1009E700E0FF900845EEF0EFA3F090083CE0FBA392
:1009F700E0FCA3E0FD9000C8C007C006C005C00426
:100A0700C0031205B3D003D004D005D006D007EB3E
:100A17004C600E8B828C838DF0E4121F90A3121F03
:100A27009075D708900836E4F09008377410F07482
:100A370027A3F07582D0C007C006C005C004C00355
:100A470012081DAA82D003D004D005D006D007EA29
:100A570060038A8222C006C00775D6D075D4D075C8
:100A6700D701900107E0FA7900900106E0F87F00CE
:100A77004201EF4202900843E9F0EAA3F0D007D021
:100A870006E94A7003020C84EE4F7003020C84904F
:100A97000100E0FF20E703020B90900843E0FEA36C
:100AA700E0FF4E7003020B8A90012CC007C006C0FE
:100AB70005C004C0031205B3900836E5D4F09008CA
:100AC700377410F07427A3F075829012081DAA825C
:100AD700D003D004D005D006D007EA60038A82226B
:100AE700A9D17A00C3E99EEA9F5006A9D17A00806E
:100AF700048E018F0289067F00900843E0F8A3E087
:100B0700FA900843E8C39EF0EA9FA3F0EB4C6024F9
:100B17008B828C838DF0122A3BF8A3122A3BFAEEC4
:100B270028FEEF3AFF8B828C838DF0EE121F90A385
:100B3700EF121F90900845E0FEA3E0FF7A00C3EA9A
:100B470099501CC001EA2EF50FE43FF5108A827513
:100B57008300E0850F82851083F00AD00180DF9043
:100B67000845E0FEA3E0FF900845E92EF0E43FA327
:100B7700F0E5D1600E900628E0FFC3E5D19F400362
:100B8700020AA175D700020C84900843E0FEA3E097
:100B9700FF4E7003020C849000C8C007C006C00552
:100BA700C004C0031205B3D003D004D005D006D0CB
:100BB70007900628E0F97A00C3EE99EF9A50048E61
:100BC700018F0289D7900845E0FEA3E0FFE5D72E05
:100BD700FEE43FFF900845EEF0EFA3F08E828F838F
:100BE700A3E0FABA0924900B77E0F97A0074016957
:100BF7007003EA600679017A00800479007A009030
:100C07000B77E9F08E828F83E9F0900836E5D6F00E
:100C17009008377410F07427A3F0758210C005C0D0
:100C270004C00312081DAF82D003D004D005EF60C3
:100C3700038F8222AED77F00900843E0F9A3E0FA42
:100C4700900843E9C39EF0EA9FA3F0EB4C700302C0
:100C57000B908B828C838DF0122A3BFEA3122A3BCA
:100C6700FFA9D77A00E92EFEEA3FFF8B828C838D9E
:100C7700F0EE121F90A3EF121F90020B909000C886
:100C87001205B3E5D760047F9080027F1090083685
:100C970074C0F09008377410F07427A3F08F821295
:100CA700081DE582FF60038F8222E5D77003F58276
:100CB70022E5D17003F5822275821722AF83E58280
:100CC700900848F0EFA3F0900848E0FEA3E0FF90FB
:100CD7000847E0FD7C00C3EC9D50178C027B01ECBC
:100CE7002EF582E43FF583E493F98A828B83F00C37
:100CF70080E4229006287408F0900847F0902A5B59
:100D0700120CC390083C744AF07408A3F0E4A3F0F3
:100D170090083FF07402A3F09006291209D6E582E5
:100D2700FF60038F8222900630E0900628F0902A19
:100D370061E493FF90084AE0FDA3E0FE7C00C3ED69
:100D47009FEE9C50047582172275820022E58290DF
:100D5700084CF09008477408F0902A73120CC3905F
:100D6700084CE0FF900102F090083CE4F0A3F0A3E8
:100D7700F090083FF0A3F0900000C0071209D6AE2C
:100D870082D007EE60038E82228F821206B3900014
:100D97006412060875820022E58290084DF09008DB
:100DA700477408F0902A83120CC390084DE0900115
:100DB70002F090083CE4F0A3F0A3F090083FF0A302
:100DC700F09000000209D69008477408F0902A7B3B
:100DD700120CC390083CE4F0A3F0A3F090083FF096
:100DE7007402A3F09006290209D6AF83E582900822
:100DF70053F0EFA3F0900853E0FEA3E0FF8E828F3D
:100E070083E07C0024FEFDEC34FFA2E713CD13CD75
:100E17008E828F83A3E0FCBC0302800475820022CC
:100E2700900850E0FBA3E0FCEB24FFF513EC34FF44
:100E3700F51490084EE0F515A3E0F5168515118514
:100E470016127800C3E89D5063C00588047D00C36F
:100E5700EC9513ED9514D0055052C00588037C001E
:100E6700EB2BFBEC33FC74032BFAE43CFDEA2EFA84
:100E7700ED3FFD8A828D83E0D005600FE82511F5EF
:100E870082E43512F583743FF0801EE82515F9E4F6
:100E97003516FA74022BFBE43CFCEB2EF582EC3F93
:100EA700F583E0FC89828A83F0088098E82515F5A8
:100EB70082E43516F583E4F07F00900852E0FE0ED9
:100EC700900B1CEDF0EFA3F0900B1EEEF0900B1FB4
:100ED7007434F0900B207456F0900B21E515F0E573
:100EE70016A3F0758205121CDA75820122AF83E51D
:100EF70082900855F0EFA3F0900855E0FEA3E0FFBD
:100F07007C007D008E828F83E0FB7A00C3EC9BED33
:100F170064808AF063F08095F050070CBC00E50D03
:100F270080E2229008477408F0902A63120CC3905D
:100F3700083C7457F07408A3F0E4A3F090083FF05E
:100F47007402A3F09006291209D6E582FF60038F89
:100F57008222902A69E493FF900857E0FDA3E0FE00
:100F67007C00C3ED9FEE9C50047582172290062BE0
:100F7700E0FF7E0090062CE0FCE42FFFEC3EFE90A5
:100F870008477408F0902A63C007C006120CC3D044
:100F970006D0078F048E05900106ECF08E079001AE
:100FA70007EFF090083C7457F07408A3F0E4A3F03F
:100FB70090083FF07402A3F09006291209D6E58243
:100FC700FF60038F8222758200229008477408F021
:100FD700902A6B120CC390083C7459F07408A3F064
:100FE700E4A3F090083FF07402A3F09006290209E9
:100FF700D6E5829008BBF0E0FF75F010A4FDAEF0D7
:10100700249BF582EE3408F583E4F0A3F0A3F0A364
:10101700F0ED249BFDEE3408FE8D828E83A3A3A3FF
:10102700A3E4F0A3F0A3F0A3F074082DF582E43E47
:10103700F583E4F0A3F0A3F0A3F0740C2DF582E49C
:101047003EF583E4F0A3F0A3F0A3F07E00EE75F085
:1010570008A4245BFC740835F0FD74012CFAE43D08
:10106700FB8A828B83E0B507298C828D83E4F08A23
:10107700828B83F08C828D83A3A3F08C828D83A3D4
:10108700A3A3F08C828D83A3A3A3A3F0A3F0A3F063
:10109700A3F00EBE080040B5227F00EF75F008A44C
:1010A700FDAEF0245BFBEE3408FC8B828C83E07092
:1010B700030211E6ED245BFDEE3408FE8D828E837C
:1010C700A3E0FC900834E4F08C82C007C006C0059A
:1010D7001207EBD005D006D0078D828E83A3A3A37A
:1010E700E0FE747F5E4490FDEE30E7067CC07E0034
:1010F70080047C007E00900836ECF0900837E4F01E
:10110700A3F08D82C00712081DE582D00760030295
:1011170011E6EF75F008A4245BFD740835F0FE7442
:10112700032DFBE43EFC8B828C83E0F96301808B0B
:10113700828C83E9F09008BCE5D1F0E0FAE0700317
:101147000211E6B2968A017A008D828E83A3A3A349
:10115700A3E0F88B828C83E0FB53037F8D828E8321
:10116700A3E075F010A4FEADF0249BF582ED3408E2
:10117700F583E0F517EE249BFEED3408FD8E828D96
:1011870083A3A3A3A3E0F51874082EF582E43DF525
:1011970083E0FC740C2EF582E43DF583E0FE900BB2
:1011A70024E9F0EAA3F0900B26E8F0900B27EFF084
:1011B700900B28EBF0900B297400F07400A3F090CB
:1011C7000B2BE517F0900B2CE518F0900B2DECF09E
:1011D700900B2EEEF0758204C007121DABD0070FDF
:1011E700BF080050030210A222AF83E5829008C017
:1011F700F0EFA3F09008C2E4F0A3F09008C4F090D9
:1012070008C5F09008C0E0F537A3E0F538AC37AD76
:10121700389008BFE075F008A4245BFA740835F02D
:10122700FB9008BDE0F535A3E0F5369008C2E0F580
:1012370031A3E0F532C3E5319535E5329536400106
:1012470022C002C003E5312537F582E5323538F58E
:1012570083E0FB9008C674FC5BF074035BF5319088
:1012670008C7F09008C8E4F0A3F0A3F0A3F0740354
:10127700B531028006D003D002800BD003D0029094
:1012870008C7E53104F0C002C0039008C2E0FAA322
:10129700E0FB74012AF531E43BF5329008C7E0F52D
:1012A70033753400D003D002C3E53495335054C0AE
:1012B70002C003AA347B00EA2531FAEB3532FBEA98
:1012C7002CF582EB3DF583E0F8E4F9FAFBE534C44D
:1012D7000354F8FF8FF005F0800CE828F8E933F99C
:1012E700EA33FAEB33FBD5F0F19008C8E048F0A3F6
:1012F700E049F0A3E04AF0A3E04BF00534D003D077
:101307000280A59008C4E0FF9008C6E0FEE4BEC0D6
:101317000104F53479008F31753200E534600875C2
:101327003901753A008005E4F539F53AC002C00382
:10133700E531C39539F8E532953AFB89027E00C35A
:10134700EA98EE64808BF063F08095F0D003D002CA
:1013570050030980C19008C6E0FFBF04028063BF45
:10136700080302140DBF14030214F1BF180302147B
:10137700F1BF24030214F1BF28030214F1BF3403A1
:101387000214F1BF44030214F1BF64030214F1BF56
:1013970074030214F1BF80030214F1BF8403021423
:1013A700F1BF90030214F1BF94030214F1BFA0032D
:1013B7000214E2BFB0030214F1BFC0030214EB0230
:1013C70014F19008C8E0F8A3E0F9A3E0FEA3E0FF5A
:1013D700C3E994FFEE9400EF94004008780079FF8A
:1013E7007E007F00B8010CB90009BE0006BF0003EC
:1013F7000214F1B8070CB90009BE0006BF0003D3F9
:101407008001C30214F19008C5E07032C004C00522
:1014170074042AFEE43BFF9008C8E0F8A3E0F9A3B0
:10142700E0FCA3E0FD8E828F83E8F0E9A3F0ECA354
:10143700F0EDA3F09008C57401F0D005D004900832
:10144700C8E0F8A3E0F9A3E0FEA3E0FFC37438986F
:10145700E499E49EE49F50030214F1E8240A83F51B
:1014670082E8243D83F583E473F1F1F1F1F1F1F1C1
:10147700F1F1F1F1F1F1F1F1F1F1F1F1F1F1F1F155
:10148700F1F1F1F1F1F1F1F1F1F1F1F1F1F1F1F145
:10149700F1F1F1F1F1F1F1F1F1F1F1F1F1F1F1F135
:1014A700F1F114141414141414141414141414143B
:1014B70014141414141414141414141414141414E5
:1014C70014141414141414141414141414141414D5
:1014D70014141414141414141414149008C4E024C9
:1014E70001F080069008C4E014F09008C7E0FF7E82
:1014F700000FBF00010E9008C2E0F8A3E0F99008C2
:10150700C2EF28F0EE39A3F0021232E5829008CC40
:10151700F09008477408F0902A8B120CC39008CCFF
:10152700E075F008A4245BFE740835F0FF74022E02
:10153700FEE43FFF8E828F83E0900104F090083C29
:1015470074CDF07408A3F0E4A3F090083FF0A3F083
:10155700900629C007C0061209D69008477408F0FC
:10156700902A93120CC3D006D0078E828F83E09007
:101577000104F0900106E4F09001077402F090086E
:101587003C74CDF07408A3F0E4A3F090083FF07426
:1015970002A3F09006291209D6E582FF60038F8225
:1015A700227E007F009008CDE0FCA3E0FDC3EE9C07
:1015B700EF9D50070EBE00ED0F80EA9008CCE0FFCC
:1015C70075F008A4245BFB740835F0FE8B828E83CC
:1015D700A3A3E0FA8B828E83A3E0FE900B1CECF0B2
:1015E700EDA3F0900B1EEFF0900B1FEAF0900B208D
:1015F700EEF0900B217429F07406A3F0758207C0F2
:1016070007121CDAD0079008CDE0FDA3E0FE900892
:10161700BDEDF0EEA3F09008BFEFF0900629121190
:10162700F075820022222222E5829008D3F09008EA
:10163700D4E4F09008D3E0FFFE75F003A4F5198514
:10164700F01A8F1E751D00900064C007C0061206B1
:1016570008900064120608851E82120FF8851E8204
:101667001206D9D006D0077900900001C007C0063E
:10167700C001120608D001D006D0078F82C007C06C
:1016870006C001120729E582D001D006D0076006FF
:1016970009B9640040D3B964108F82C007C006122D
:1016A7000645D006D007021AF49008D3E0F990084F
:1016B70034E4F08982C007C006C0011207EB120CA0
:1016C700FAA882D001D006D0079008D4E8F0E860E5
:1016D70003021AABC006E975F010A4F8AEF0249B1C
:1016E700F51BEE3408F51C900631E0FA7B007C0010
:1016F7007D00851B82851C83EAF0EBA3F0ECA3F049
:10170700EDA3F0E8249BF8EE3408FE740428F51BDB
:10171700E43EF51C900632E0FA7B007C007D0085F4
:101727001B82851C83EAF0EBA3F0ECA3F0EDA3F09A
:10173700740828F51BE43EF51C900633E0FA7B009D
:101747007C007D00851B82851C83EAF0EBA3F0EC0F
:10175700A3F0EDA3F0740C28F8E43EFE900634E005
:10176700FD7C007B007A0088828E83EDF0ECA3F08D
:10177700EBA3F0EAA3F0900629C007C006C0011248
:101787000EF4D001D006902A75E49329F51B851B2A
:1017970082C001120D54AE82D001D0079008D4EE5A
:1017A700F0EED0066003021AABE975F003A4242912
:1017B700FC740835F0FD8C828D83A3E51BF0C00710
:1017C700C006C001120DCE900629120EF4D001906A
:1017D700084E7429F07406A3F0900850E4F07402E0
:1017E700A3F0900852E9F0900629C001120DF112FA
:1017F7000F2AAD82D001D006D0079008D4EDF0EDC6
:101807006003021AAB90062BE0FD7C0090062CE0EB
:10181700FA7B00900B1CEB2DF0EA3CA3F009900B30
:101827001EE51BF0900B1FE9F0900B2074AAF090B7
:101837000B217429F07406A3F0758206121CDA9046
:101847000AD7E4F0A3F07C007D0090062BE0FB7A3A
:101857000090062CE0F9E42BFBE93AFAC3EC9BED88
:101867009A50070CBC00E30D80E090062EE0F5824D
:10187700120D9F90062BE0FD7C0090062CE0FAE409
:101887002DFDEA3CFC8D028C0378007900C3E89AB1
:10189700E99B502BC005C004E824D7F51BE93408A1
:1018A700F51CE82429F582E93406F583E0851B82D7
:1018B700851C83F008B8000109D004D00580CE90BC
:1018C7000629E0FB9008D5F0E4A3F09008D3E0F5F3
:1018D70021AA218D1F8C209008D5E0F8A3E0F9C339
:1018E700E8951FE995204003021AA7E824D7F8E9ED
:1018F7003408F9900AD9E8F0E9A3F088828983A32C
:10190700E0F51B7404B51B0280227405B51B028029
:101917003B7421B51B03021A2C7424B51B03021A4E
:101927005D7425B51B03021A6A021A7788048905B4
:10193700900AD7ECF0EDA3F09008CFECF0EDA3F010
:101947008A82C00212162CD002021A82C002888232
:101957008983C002C001C000120EF4D000D001D0AC
:1019670002900AD7E0FAA3E0FD8A828D83A3A3A39E
:10197700A3A3E0FDBD03028005D002021A828804FA
:10198700890574022CF522E43DF5238522828523FF
:1019970083E0D00220E703021A82751B00C002E52C
:1019A7001B75F008A4245BFA740835F0FB8A828B58
:1019B70083E0D0026008051B74F8251B50DFC002C6
:1019C700E51B75F008A4245BFA740835F0FB740373
:1019D7002AF524E43BF525852282852383E0FD5300
:1019E700057F852482852583EDF08A828B837401A8
:1019F700F0042AF524E43BF525900AD7E0FCA3E0A0
:101A0700FD8C828D83A3A3E0852482852583F08ABC
:101A1700828B83A3E521F0851B82C002121512D0A9
:101A270002D0028056900AD7E0FCA3E0FD900AD7C7
:101A3700E0F5F0A3E045F06042C002880289039018
:101A470008D1EAF0EBA3F08C828D83C00212162D29
:101A5700D002D002802588828983C002120EF4D07A
:101A670002801888828983C002120EF4D002800B8C
:101A770088828983C002120EF4D002900AD9E0FC52
:101A8700A3E0FD8C828D83E0FC7D009008D5E0F912
:101A9700A3E0FB9008D5EC29F0ED3BA3F00218DE9C
:101AA700758200228E050D9008D4E0FC900B1CE493
:101AB700F0A3F0900B1EEDF0900B1FECF0900B20B5
:101AC70074EEF0900B21E4F0A3F0758203C007C019
:101AD70006121CDAE5192429F582E51A3408F5837C
:101AE7007402F07582011206C5D006D007051D7471
:101AF700F6251D400302164E9008D4E0F582229089
:101B07000ADBE4F010D803021C29E5DB30E3499037
:101B17000829E06008E5E430E003021B9C758200B9
:101B27001206459008297401F0900B1CE4F0A3F00D
:101B3700900B1E04F0900B1FF0900B20F0900B21E0
:101B4700E4F0A3F0758201121CDA75820012162FD9
:101B5700E582900ADBF0803D900829E0FFBF010095
:101B67004033758200120FF8758200120645900BFC
:101B77001CE4F0A3F0900B1E04F0900B1FF0900BE9
:101B870020F0900B21E4F0A3F0758202121CDA908A
:101B97000ADB7416F0E5DB30E74A90082CE06008B2
:101BA700E5E530E003021C2975820112064590081D
:101BB7002C7401F0900B1CE4F0A3F0900B1E740240
:101BC700F0900B1FF0900B20F0900B21E4F0A3F0A6
:101BD700758201121CDA75820112162FE582900AAE
:101BE700DBF0803E90082CE0FFBF01004034758297
:101BF70001120FF8758201120645900B1CE4F0A341
:101C0700F0900B1E7402F0900B1FF0900B20F090D9
:101C17000B21E4F0A3F0758202121CDA900ADB7440
:091C270016F0900ADBE0F58222C0
:102A5B008006000100001200800600020000120038
:102A6B0081060004000009000005020000000000C0
:102A7B0080060203090402040009000000000000A4
:102A8B00210A000000000000810600220000FF0068
:012AB0000025
:101C300010980122900B78E024DCF582E4340AF558
:101C400083E599F0900B78E0FF24DCF582E4340A18
:101C5000F583E0FEBE0A028008BF40005003021C6C
:101C6000D17E00900B78E0FDC3EE9D502EEE24DC7B
:101C7000F582E4340AF583E0FD7C00C006C005C0AF
:101C800004749BC0E0742AC0E07480C0E0121FF9A5
:101C9000E58124FBF581D0060E80C874A3C0E074F2
:101CA0002AC0E07480C0E0121FF9158115811581EA
:101CB000900ADCE0FEBE6B11900ADDE0FEBE620918
:101CC000850882850983120006900B78E4F0021CD7
:101CD00030900B78EF04F0021C30E582900B23F07B
:101CE0009000FE120586900B1CE0FEA3E0FF8E82A2
:101CF0008F83C007C006120586D006D0078F057CEB
:101D0000008D828C83C007C006120586900B23E0ED
:101D1000FD7C008D828C83120586900B1EE0FD7C7D
:101D2000008D828C83120586900B1FE0FD7C008D58
:101D3000828C83120586900B20E0FD7C008D828CC6
:101D40008312058690000012058690000012058619
:101D5000900000120586900000120586D006D0077C
:101D6000900B21E0FCA3E0FD7A007B00C3EA9EEB30
:101D70009F5032EA2CF582EB3DF583E0F87900883C
:101D8000828983C007C006C005C004C003C0021218
:101D90000586D002D003D004D005D006D0070ABAF9
:101DA00000CA0B80C790000A020586E582900B2FBF
:101DB000F09000FE120586900B24E0FEA3E0FF8E5B
:101DC000828F83C007C006120586D006D0078F0514
:101DD0007C008D828C83C007C006120586900B2F75
:101DE000E0FD7C008D828C83120586900B26E0FD41
:101DF0007C008D828C83120586900B27E0FD7C0091
:101E00008D828C83120586900B28E0FD7C008D82EC
:101E10008C83120586900B2BE0FD7C008D828C83D9
:101E2000120586900B2CE0FD7C008D828C831205C0
:101E300086900B2DE0FD7C008D828C8312058690B0
:101E40000B2EE0FD7C008D828C83120586D006D09F
:101E500007900B29E0FCA3E0FD7A007B00C3EA9E1B
:101E6000EB9F5032EA2CF582EB3DF583E0F87900E8
:101E700088828983C007C006C005C004C003C002B1
:101E8000120586D002D003D004D005D006D0070AB0
:0C1E9000BA00CA0B80C790000A02058649
:0A2A9B0030782530325820000A0080
:012AB1000024
:101E9C00AF82AE83ADF0FC900B34EFF0EEA3F0ED1F
:101EAC00A3F0ECA3F0900B38E4F0A3F0A3F0A3F0B4
:101EBC00900B30E0FCA3E0FDA3E0FEA3E0FF7B2051
:101ECC00C003900B34E0F8A3E0F9A3E0FAA3E0FB25
:101EDC00900B3C235401F0E828F8E933F9EA33FA83
:101EEC00EB33FB900B34E8F0E9A3F0EAA3F0EBA39F
:101EFC00F0900B38E0F8A3E0F9A3E0FAA3E0FBE8DC
:101F0C0028F8E933F9EA33FAEB33FB900B38E8F0B5
:101F1C00E9A3F0EAA3F0EBA3F0D003900B3CE06054
:101F2C0008900B38E043E001F0900B38E0F531A35A
:101F3C00E0F532A3E0F533A3E0F534C3E5319CE5DD
:101F4C00329DE5339EE5349F401F900B38E531C33D
:101F5C009CF0E5329DA3F0E5339EA3F0E5349FA3FE
:101F6C00F0900B34E043E001F01BEB6003021ECC5D
:101F7C00900B34E0FCA3E0FDA3E0FEA3E08C828D8B
:041F8C00838EF0222E
:06003700E478FFF6D8FD9D
:100015007902E94400601B7A01902AB0787775A0CF
:100025000BE493F2A308B8000205A0D9F4DAF2753F
:02003500A0FF2A
:101F900020F71130F6138883A88220F509F6A8836C
:0B1FA0007583002280FEF280F5F02225
:10003D007800E84400600A790075A006E4F309D859
:10004D00FC7877E84405600C7906900600E4F0A38F
:04005D00D8FCD9FAF8
:02000600E473A1
:101FAB00C0308581307E008E83120586D03022AF03
:101FBB00F0AE83E582900B3FF0EEA3F0EFA3F09031
:101FCB000B3FE0FDA3E0FEA3E0FF900B3EE0FC9097
:101FDB000B53E4F0A3F0A3F0900B56EDF0EEA3F04F
:101FEB00EFA3F0900B59ECF0901FAB022102C03025
:101FFB00E581F53024FBFF900B53E4F0A3F0A3F045
:10200B00E53024FBF8900B56E6F008E6A3F008E663
:10201B00A3F0900B59EFF0901FAB122102D030229E
:10202B00E582900B4FF0E0FF900B45E0C0E0A3E0A2
:10203B00C0E0A3E0C0E0122046800D900B43E0C04F
:10204B00E0A3E0C0E08F8222158115811581900BF2
:10205B004DE02401F0A3E03400F022E582900B5018
:10206B00F0E02430FF24C6500D74072FFF900B4275
:10207B00E060034307208F8202202BE582900B51F7
:10208B00F0E0FFC4540FF582C007122066D007534F
:10209B00070F8F82022066E582900B52F0900B485F
:1020AB00E0FCA3E0FDA3E0FEA3E0FF900B4CE0FB04
:1020BB00753120900B52E0F98B00E828F8EF235490
:1020CB000148FBEC2CFCED33FDEE33FEEF33FFC38D
:1020DB00EB994007EBC399FB430401E53114FA8AF2
:1020EB003170D5900B48ECF0EDA3F0EEA3F0EFA31D
:1020FB00F0900B4CEBF022AF83E582900B5AF0EF94
:10210B00A3F0900B5AE0FEA3E0FF900B43EEF0EF31
:10211B00A3F0900B53E0FDA3E0FEA3E0FF900B4573
:10212B00EDF0EEA3F0EFA3F0900B4DE4F0A3F090E5
:10213B000B56E0FDA3E0FEA3E0FF8D828E838FF0B4
:10214B00122A3BFC900B5674012DF0E43EA3F0EFEA
:10215B00A3F0EC70030229F7BC250280030229EFE0
:10216B00900B5CE4F0900B5DF0900B5EF0900B5FCE
:10217B00F0900B60F0900B61F0900B62F0900B63A2
:10218B00F0900B65F0900B66F0A3F0900B6814F0D9
:10219B00A3F0900B56E0FDA3E0FEA3E0FF8D828E33
:1021AB00838FF0122A3BFBA3AD82AE83900B56EDCF
:1021BB00F0EEA3F0EFA3F0900B6CEBF0BB25088BCC
:1021CB008212202B02213ABB3000500302229BEBE0
:1021DB0024C6500302229B900B68E0F526A3E0F582
:1021EB002774FFB52663B52760C005C006C00790EE
:1021FB000B66E0FAA3E0FF900B75EAF0EFA3F0900B
:10220B00000AC005C003122A1BAE82AF83D003D0D5
:10221B00058B027D00EA2EFEED3FFFEE24D0FEEF94
:10222B0034FFFF900B66EEF0EFA3F0D007D006D093
:10223B0005900B66E0F5F0A3E045F060030221A8E2
:10224B00900B5D7401F00221A8C005C006C0079079
:10225B000B75E526F0E527A3F090000AC006C00534
:10226B00C003122A1BAA82AF83D003D005D0067EEF
:10227B0000EB2AFAEE3FFFEA24D0FAEF34FFFF908F
:10228B000B68EAF0EFA3F0D007D006D0050221A827
:10229B00900B6CE0FBBB2E2FC005C006C007900B4C
:1022AB0068E0FAA3E0FFBAFF05BFFF028009D00781
:1022BB00D006D0050221A8D007D006D005900B6818
:1022CB00E4F0A3F00221A8BB61004014EB2485408D
:1022DB000F900B6C74DF5BF0900B427401F0800578
:1022EB00900B42E4F0900B6CE0FBBB20028075BBC3
:1022FB002B028067BB2D028059BB4202806FBB4310
:10230B0002807CBB4403022592BB46030225B8BB6B
:10231B0048030221A8BB4903022592BB4A030221B1
:10232B00A8BB4C028050BB4F030225A0BB5003023D
:10233B002500BB53028077BB54030221A8BB550376
:10234B000225A8BB58030225B0BB5A030221A802E1
:10235B0025C0900B5C7401F00221A8900B5E7401F8
:10236B00F00221A8900B5F7401F00221A8900B6181
:10237B007401F00221A8900B627401F00221A89065
:10238B000B61E0600E900B59E014F9F0900B6CE7C9
:10239B00F0800F900B59E024FEFFF08F01900B6C37
:1023AB00E7F0900B6CE0F58212202B0225CF900BFF
:1023BB0059E024FDFFF08F01870509870609870780
:1023CB001919900B48EDF0EEA3F0EFA3F08D828E70
:1023DB00838FF0122A03858226858327900B68E072
:1023EB00FAA3E0FDBAFF0DBDFF0A900B68E526F0DE
:1023FB00E527A3F0900B5CE0704B900B66E0FAA323
:10240B00E0FDC3E5269AE5279D503A900B66EAC39B
:10241B009526F0ED9527A3F0900B66E0FAA3E0FD6F
:10242B008A068D071ABAFF011DEE4F6010758220C8
:10243B00C005C00212202BD002D00580E3900B66A2
:10244B00EAF0EDA3F0900B68E0F529A3E0F52A90F4
:10245B000B48E0FAA3E0FDA3E0FF8A828D838FF0A7
:10246B00122A3BF528603CC3E495297480852AF039
:10247B0063F08095F0502C152974FFB52902152AAD
:10248B0085288212202B900B48E0FAA3E0FDA3E0F5
:10249B00FF0ABA00010D900B48EAF0EDA3F0EFA391
:1024AB00F080AC900B5CE070030225CF900B66E0E4
:1024BB00FEA3E0FFC3E5269EE5279F40030225CF41
:1024CB00900B66EEC39526F0EF9527A3F0900B6665
:1024DB00E0FEA3E0FF8E028F051EBEFF011FEA4D3B
:1024EB0070030225C7758220C007C00612202BD0AF
:1024FB0006D00780E0900B59E024FDFDF08D01879D
:10250B002B09872C09872D1919900B48E52BF0E522
:10251B002CA3F0E52DA3F0900B4AE0FDBD8000400D
:10252B0008900B6C7443F08020BD60004008900B4A
:10253B006C7450F08013BD40004008900B6C7449D4
:10254B00F08006900B6C7458F0900B6CE0FDF582EC
:10255B00C00512202B75823A12202B758230122067
:10256B002B75827812202BD005BD4902800EBD50F1
:10257B00028009900B49E0F582122086900B48E00F
:10258B00F582122086803D900B607401F0900B65F4
:10259B00740AF0802F900B657408F08027900B6500
:1025AB00740AF0801F900B657410F08017900B630A
:1025BB007401F0800F8B8212202B8008900B66EE3B
:1025CB00F0EFA3F0900B63E06071900B59E024FCEB
:1025DB00FFF08F018703098705098706098707190C
:1025EB001919900B48EBF0EDA3F0EEA3F0EFA3F06D
:1025FB00900B4874A5F0742AA3F07480A3F0900B91
:10260B0048E0F52BA3E0F52CA3E0F52D7401252B69
:10261B00FAE4352CFBAF2D900B48EAF0EBA3F0EF6F
:10262B00A3F0852B82852C83852DF0122A3BFF701E
:10263B000302213A8F8212202B80C3900B65E0702E
:10264B000302213A900B61E06047900B59E014F9BB
:10265B00F087077E007D007B00900B48EFF0EEA328
:10266B00F0EDA3F0EBA3F0900B60E06003022712F8
:10267B00900B48E0FBA3E0A3E0A3E07D007E007F8E
:10268B0000900B48EBF0EDA3F0EEA3F0EFA3F0807E
:10269B0076900B62E06028900B59E024FCFFF08FE2
:1026AB0001870309870509870609870719191990F7
:1026BB000B48EBF0EDA3F0EEA3F0EFA3F080489006
:1026CB000B59E024FEFFF08F01870609870719EFEE
:1026DB003395E0FDFB900B48EEF0EFA3F0EDA3F08C
:1026EB00EBA3F0900B60E0701E900B48E0FBA3E0B7
:1026FB00FDA3E0A3E07E007F00900B48EBF0EDA381
:10270B00F0EEA3F0EFA3F0900B60E06041900B486C
:10271B00E0FBA3E0FDA3E0FEA3E0FF30E72B900B73
:10272B0048E0FBA3E0FDA3E0FEA3E0FFC3E49BFBBB
:10273B00E49DFDE49EFEE49FFF900B48EBF0EDA3C0
:10274B00F0EEA3F0EFA3F08005900B60E4F0900B9C
:10275B00647401F0900B65E0F529752E72752F0BE3
:10276B00E4F526F527900B4CE4F08529821220A284
:10277B00900B64E07026900B4CE0C4F52B852E82F9
:10278B00852F83E0FFE52B4207852E82852F83EF74
:10279B00F0152E74FFB52E02152F800C900B4CE00C
:1027AB00FF852E82852F83F00526E4B526020527AB
:1027BB00900B64E0B40100E433F0900B48E0FAA313
:1027CB00E0FBA3E0FEA3E0FFEA4B4E4F7097900BAC
:1027DB0073E52EF0E52FA3F0900B6AE526F0E527C5
:1027EB00A3F0900B66E0F5F0A3E045F07009900BB9
:1027FB00667401F0E4A3F0900B5DE0FFE07047908E
:10280B000B5CE0704185262E85272F900B66E0FA36
:10281B00A3E0FBC007AF2E0F8F067F00C3EE9AEF2E
:10282B009BD0075019758220C007C003C00212202D
:10283B002BD002D003D0071ABAFF011B80D5900B07
:10284B0066EAF0EBA3F0900B60E0602075822DC080
:10285B000712202BD007900B66E024FFFDA3E0347A
:10286B00FFFE900B66EDF0EEA3F08056900B6AE046
:10287B00F5F0A3E045F0604A900B5EE060207582B6
:10288B002BC00712202BD007900B66E024FFFDA373
:10289B00E034FFFE900B66EDF0EEA3F08024900B7E
:1028AB005FE0601E758220C00712202BD007900BB3
:1028BB0066E024FFFDA3E034FFFE900B66EDF0EE27
:1028CB00A3F0900B5CE07048900B6AE0F52EA3E050
:1028DB00F52F900B66E0FAA3E0FBC0078A068B0787
:1028EB001ABAFF011BC3E52E9EE52F9FD00750534D
:1028FB00EF60067D307E0080047D207E008D82C0DF
:10290B0007C003C00212202BD002D003D00780CA0D
:10291B00900B66E0FEA3E0FF900B6AE0F52EA3E0C0
:10292B00F52FC3E52E9EE52F9F500F900B66EEC340
:10293B00952EF0EF952FA3F08011900B66E4F0A38A
:10294B00F08008900B66EAF0EBA3F0900B73E0FEBF
:10295B00A3E0FF900B6AE0F52EA3E0F52FAA2EADB6
:10296B002F152E74FFB52E02152FEA4D6045900BD7
:10297B0064E0B40100E433F0900B64E070140EBE1D
:10298B0000010F8E828F83E0C4540FFD900B4CF02F
:10299B00800E8E828F83E0FD53050F900B4CEDF074
:1029AB00900B4CE0F582C007C006122066D006D013
:1029BB000780AA900B5CE0700302213A900B66E053
:1029CB00FEA3E0FF8E038F051EBEFF011FEB4D70B4
:1029DB000302213A758220C007C00612202BD006B5
:1029EB00D00780E08C8212202B02213A900B4DE015
:0829FB00FEA3E08E82F58322A9
:0B2AA5003C4E4F20464C4F41543E0079
:102A0300AA82AB83122A3B6003A380F8C3E5829AB0
:102A1300F582E5839BF58322AA83AB828BF0900B2F
:102A230075E0A4F8A9F08AF0E0A429F98BF0A3E0FB
:082A3300A429F5838882222208
:0D00080075813A122A57E582600302000359
:102A3B0020F71430F6148883A88220F507E6A883C4
:102A4B0075830022E280F7E49322E0227582002254
:00000001FF
