:03000000020008F3
:0300670002000391
:0300030002006A8E
:10006A001200CA9006007401F0E4A3F090C2007571
:10007A00F001E41200E2758200120FFB7582011290
:10008A000FFB12067C900B25E4F0A3F0900B27F0EF
:10009A00900B28F0900B29F0900B2AF0A3F07582B0
:1000AA0008121F77E5C120E60985088285098312AF
:1000BA000006121ECD121DA31210CF1212FD80E4EB
:060061007508007509F4AA
:1000CA0075A15575A1AA53B3E043B30675B2D875A5
:1000DA00A1FF90000702060BAF82AE83ADF0FC9041
:1000EA000602EFF0EEA3F0EDA3F0ECA3F090060009
:1000FA00E0F5F0A3E045F0600C43C60143C40843B1
:10010A00C50C43CE10C29FD29EC29DD29C4387800B
:10011A00900602E0FCA3E0FDA3E0FEA3E0FF900B43
:10012A0039ECF0EDA3F0EEA3F0EFA3F0908D80751B
:10013A00F05BE4122139AC82AD830CBC00010DEDF9
:10014A00C313CC13CC740F55894420F58943C9A035
:10015A00C3E49CFC8C8DD28ED2992210980280FB2B
:10016A0085998222E582900606F0E0F5993099FD9C
:10017A00D29922E582900609F090060A74C4F074B6
:10018A0000A3F07440A3F090060D74BAF07400A3B3
:10019A00F07440A3F090061074BCF07400A3F074DD
:1001AA0040A3F090061374BEF07400A3F07440A349
:1001BA00F090061674C5F07400A3F07440A3F09092
:1001CA00061974BBF07400A3F07440A3F090061CE7
:1001DA0074BDF07400A3F07440A3F090061F74BFBE
:1001EA00F07400A3F07440A3F0900608E0FF24F92D
:1001FA00500122EF2F2F9002047302021902029C6F
:10020A0002032102037C0203FE0204840205089011
:10021A000609E0FFFE8EF005F07401800225E0D5A4
:10022A00F0FBF4ADC65DF5C6EF75F003A4FFAEF0C2
:10023A00240AF582EE3406F583E0FBA3E0FCA3E092
:10024A00FD8B828C838DF0122CD8FA900607E0F988
:10025A0089F005F07401800225E0D5F0FBF4F9522B
:10026A00028B828C838DF0EA12222DEF2416F582FE
:10027A00EE3406F583E0FDA3E0FEA3E0FF8D828E57
:10028A00838FF0122CD852018D828E838FF0E9026F
:10029A00222D900609E0FFFE8EF005F0740180021F
:1002AA0025E0D5F0FBF4ADC65DF5C6EF75F003A405
:1002BA00FFAEF0240AF582EE3406F583E0FBA3E0F4
:1002CA00FCA3E0FD8B828C838DF0122CD8FA900669
:1002DA0007E0F989F005F07401800225E0D5F0FB0A
:1002EA00F9F4F8EA52008B828C838DF0E812222D01
:1002FA00EF2416F582EE3406F583E0FDA3E0FEA3B3
:10030A00E0FF8D828E838FF0122CD842018D828E6F
:10031A00838FF0E902222D900609E0FFFE8EF00598
:10032A00F07401800225E0D5F0FBF4ADC65DF5C698
:10033A00EF75F003A4240AF582740635F0F583E01C
:10034A00FDA3E0FEA3E0FF8D828E838FF0122CD8EE
:10035A00FC900607E0FB8BF005F07401800225E0B3
:10036A00D5F0FBF4FBEC42038D828E838FF0EB0217
:10037A00222D900609E0FFFE8EF005F0740180023E
:10038A0025E0D5F0FBADC64DF5C6EF75F003A4FF29
:10039A00AEF0240AF582EE3406F583E0FBA3E0FC16
:1003AA00A3E0FD8B828C838DF0122CD8FA9006077D
:1003BA00E0F989F005F07401800225E0D5F0FBF43C
:1003CA00F952028B828C838DF0EA12222DEF2416C9
:1003DA00F582EE3406F583E0FDA3E0FEA3E0FF8D8F
:1003EA00828E838FF0122CD852018D828E838FF0E9
:1003FA00E902222D900609E0FFFE8EF005F0740155
:10040A00800225E0D5F0FBADC64DF5C6EF75F003C9
:10041A00A4FFAEF0240AF582EE3406F583E0FBA3CE
:10042A00E0FCA3E0FD8B828C838DF0122CD8FA902D
:10043A000607E0F989F005F07401800225E0D5F09D
:10044A00FBF942028B828C838DF0EA12222DEF2473
:10045A0016F582EE3406F583E0FDA3E0FEA3E0FF85
:10046A008D828E838FF0122CD8FCE9F4F9EC5201BC
:10047A008D828E838FF0E902222D900609E0FFFE1D
:10048A008EF005F07401800225E0D5F0FBADC64D73
:10049A00F5C6EF75F003A4FFAEF0240AF582EE3438
:1004AA0006F583E0FBA3E0FCA3E0FD8B828C838D41
:1004BA00F0122CD8FA900607E0F989F005F07401D9
:1004CA00800225E0D5F0FBF9F4F8EA52008B828C21
:1004DA00838DF0E812222DEF2416F582EE3406F50C
:1004EA0083E0FDA3E0FEA3E0FF8D828E838FF012EE
:1004FA002CD842018D828E838FF0E902222D90063C
:10050A0009E0FFFE8EF005F07401800225E0D5F0C7
:10051A00FBADC64DF5C6EF75F003A4FFAEF0240A95
:10052A00F582EE3406F583E0FBA3E0FCA3E0FD8B45
:10053A00828C838DF0122CD8FA900607E0F989F0A4
:10054A0005F07401800225E0D5F0FBF942028B82A6
:10055A008C838DF0EA12222DEF2416F582EE3406F2
:10056A00F583E0FDA3E0FEA3E0FF8D828E838FF08A
:10057A00122CD842018D828E838FF0E902222DAF90
:10058A0083E582900622F0EFA3F010990280FB9097
:10059A000622E0FEA3E0FF8E998E828F83221098B6
:1005AA000280FBAE997F008E828F8322AF83E58221
:1005BA00900624F0EFA3F0900624E0FEA3E0FFEEFD
:1005CA004F603505A105A105A105A105A105A10554
:1005DA00A105A105A105A105A105A105A105A105E1
:1005EA00A105A105A105A105A11EBEFF011F900637
:1005FA0024EEF0EFA3F080C7900624EEF0EFA3F00C
:10060A0022AF83E582900626F0EFA3F0900626E05B
:10061A00FEA3E0FFEE4F601D9003E8C007C006127C
:10062A0005B6D006D0071EBEFF011F900626EEF0C3
:10063A00EFA3F080DF900626EEF0EFA3F022E5822A
:10064A0090082FF0E0FF75F003A4FDAEF02429F521
:10065A0082EE3408F583E4F0ED2429FDEE3408FE39
:10066A008D828E83A3E4F0EF600475E5002275E4C1
:10067A000022C2EA75E28075E3009024477448F0CC
:10068A0090244CE4F0A3F090244E04F0E4A3F0F597
:10069A00D4F5D675E28975D24075D8FF75820012F5
:1006AA00064875820112064875E10322E582900820
:1006BA0030F0E5E35480FFE0547F4FF5E322E58212
:1006CA00900831F0E0600753E2BF53D27F2243E241
:1006DA004022E582900832F09006287408F075826C
:1006EA00001206B67582011206C8900832E0FFE0D1
:1006FA00701374FB55E44402F5E490000F12060BE4
:10070A0053E4FD8014BF011174FB55E54402F5E57D
:10071A0090000F12060B53E5FD9000FA1205B6C2BF
:10072A00D822E582900833F0E075F003A42429FE6C
:10073A00740835F0FF8E828F83E0FDBD01005007FB
:10074A008E828F837401F0900833E0FF7049E5DBF5
:10075A0020E3030207EAE5E420E035E5DB30E21AAC
:10076A00EF75F003A42429FD740835F0FE8D828EFE
:10077A0083A3A3E4F043E4048016EF75F003A424F2
:10078A0029FD740835F0FE8D828E83A3A37401F0CF
:10079A0043E40175820022BF0146E5DB30E741E50B
:1007AA00E520E035E5DB30E61AEF75F003A42429ED
:1007BA00FD740835F0FE8D828E83A3A3E4F043E531
:1007CA00048016EF75F003A42429FE740835F0FF9F
:1007DA008E828F83A3A37401F043E5017582002200
:1007EA0075821622E582900835F0E075F003A4249C
:1007FA0029FE740835F0FF8E828F83A3E0F582C04C
:10080A0007C0061206B6D006D0078E828F83A3A32E
:10081A00E0F5820206C8E582900839F0900836E0D1
:10082A00FF8FD48FD690083AE4F0A3F0900839E00D
:10083A00FEC4540FFDBD0103ED8001E4F50DE4BDD6
:10084A00090104F50E900837E0F9A3E0FA8ED5C243
:10085A00D9750AC8750B00E50A450B602820D92509
:10086A00900001C007C006C005C002C0011205B64B
:10087A00D001D002D005D006D007150A74FFB50AF8
:10088A0002150B80D275D50020D9047582FE22206C
:10089A00D90302099830DE0475820022E5D9540F83
:1008AA00F50C740EB50C0474018001E4F50A6007B6
:1008BA007420450CF58222740AB50C047401800177
:1008CA00E4F86033E94A700A7420450CF50D850D89
:1008DA008222C3E994FFEA94FF500519B9FF011A6D
:1008EA0090083AE024FFFBA3E034FFFC90083AEBBF
:1008FA00F0ECA3F002099BE50D700CE50E7034BD17
:10090A000D02800302099430DE047582002274020B
:10091A00B50C0475820022E50A7003E860077420AA
:10092A00450CF58222E50C700302099B7420450CE4
:10093A00F5822230DE0475820022EF6011740BB555
:10094A000C0474018001E424FFE433FC8010740376
:10095A00B50C0474018001E4FB24FFE433FCEC6071
:10096A000475820022E50A7003E860077420450CCA
:10097A00F582227403B50C07740BB50C028012E5DC
:10098A000C600E7420450CF582227582FE2275D801
:10099A00FF90000FC007C006C005C002C0011205C3
:1009AA00B6D001D002D005D006D00790083AE0248C
:1009BA0001F0A3E03400F090083AE0FBA3E0FCC3A6
:1009CA00EB94C8EC9400500302085775822022AFBA
:1009DA0083E582900841F0EFA3F0900841E0FEA37E
:1009EA00E0FF900845EEF0EFA3F090083CE0FBA38F
:1009FA00E0FCA3E0FD9000C8C007C006C005C00423
:100A0A00C0031205B6D003D004D005D006D007EB38
:100A1A004C600E8B828C838DF0E412222DA312225D
:100A2A002D75D708900836E4F09008377410F074E2
:100A3A0027A3F07582D0C007C006C005C004C00352
:100A4A00120820AA82D003D004D005D006D007EA23
:100A5A0060038A8222C006C00775D6D075D4D075C5
:100A6A00D701900107E0FA7900900106E0F87F00CB
:100A7A004201EF4202900843E9F0EAA3F0D007D01E
:100A8A0006E94A7003020C87EE4F7003020C879046
:100A9A000100E0FF20E703020B93900843E0FEA366
:100AAA00E0FF4E7003020B8D90012CC007C006C0F8
:100ABA0005C004C0031205B6900836E5D4F09008C4
:100ACA00377410F07427A3F0758290120820AA8256
:100ADA00D003D004D005D006D007EA60038A822268
:100AEA00A9D17A00C3E99EEA9F5006A9D17A00806B
:100AFA00048E018F0289067F00900843E0F8A3E084
:100B0A00FA900843E8C39EF0EA9FA3F0EB4C6024F6
:100B1A008B828C838DF0122CD8F8A3122CD8FAEE83
:100B2A0028FEEF3AFF8B828C838DF0EE12222DA3E2
:100B3A00EF12222D900845E0FEA3E0FF7A00C3EAF7
:100B4A0099501CC001EA2EF50FE43FF5108A827510
:100B5A008300E0850F82851083F00AD00180DF9040
:100B6A000845E0FEA3E0FF900845E92EF0E43FA324
:100B7A00F0E5D1600E900628E0FFC3E5D19F40035F
:100B8A00020AA475D700020C87900843E0FEA3E08E
:100B9A00FF4E7003020C879000C8C007C006C0054C
:100BAA00C004C0031205B6D003D004D005D006D0C5
:100BBA0007900628E0F97A00C3EE99EF9A50048E5E
:100BCA00018F0289D7900845E0FEA3E0FFE5D72E02
:100BDA00FEE43FFF900845EEF0EFA3F08E828F838C
:100BEA00A3E0FABA0924900B80E0F97A007401694B
:100BFA007003EA600679017A00800479007A00902D
:100C0A000B80E9F08E828F83E9F0900836E5D6F002
:100C1A009008377410F07427A3F0758210C005C0CD
:100C2A0004C003120820AF82D003D004D005EF60BD
:100C3A00038F8222AED77F00900843E0F9A3E0FA3F
:100C4A00900843E9C39EF0EA9FA3F0EB4C700302BD
:100C5A000B938B828C838DF0122CD8FEA3122CD886
:100C6A00FFA9D77A00E92EFEEA3FFF8B828C838D9B
:100C7A00F0EE12222DA3EF12222D020B939000C840
:100C8A001205B6E5D760047F9080027F109008367F
:100C9A0074C0F09008377410F07427A3F08F821292
:100CAA000820E582FF60038F8222E5D77003F58270
:100CBA0022E5D17003F5822275821722AF83E5827D
:100CCA00900848F0EFA3F0900848E0FEA3E0FF90F8
:100CDA000847E0FD7C00C3EC9D50178C027B01ECB9
:100CEA002EF582E43FF583E493F98A828B83F00C34
:100CFA0080E4229006287408F0900847F0902CF8B7
:100D0A00120CC690083C744AF07408A3F0E4A3F0ED
:100D1A0090083FF07402A3F09006291209D9E582DF
:100D2A00FF60038F8222900630E0900628F0902C14
:100D3A00FEE493FF90084AE0FDA3E0FE7C00C3EDC9
:100D4A009FEE9C50047582172275820022E58290DC
:100D5A00084CF09008477408F0902D10120CC690B9
:100D6A00084CE0FF900102F090083CE4F0A3F0A3E5
:100D7A00F090083FF0A3F0900000C0071209D9AE26
:100D8A0082D007EE60038E82228F821206B690000E
:100D9A006412060B75820022E58290084DF09008D5
:100DAA00477408F0902D20120CC690084DE090016F
:100DBA0002F090083CE4F0A3F0A3F090083FF0A3FF
:100DCA00F09000000209D99008477408F0902D1895
:100DDA00120CC690083CE4F0A3F0A3F090083FF090
:100DEA007402A3F09006290209D9AF83E58290081C
:100DFA0053F0EFA3F0900853E0FEA3E0FF8E828F3A
:100E0A0083E07C0024FEFDEC34FFA2E713CD13CD72
:100E1A008E828F83A3E0FCBC0302800475820022C9
:100E2A00900850E0FBA3E0FCEB24FFF513EC34FF41
:100E3A00F51490084EE0F515A3E0F5168515118511
:100E4A0016127800C3E89D5063C00588047D00C36C
:100E5A00EC9513ED9514D0055052C00588037C001B
:100E6A00EB2BFBEC33FC74032BFAE43CFDEA2EFA81
:100E7A00ED3FFD8A828D83E0D005600FE82511F5EC
:100E8A0082E43512F583743FF0801EE82515F9E4F3
:100E9A003516FA74022BFBE43CFCEB2EF582EC3F90
:100EAA00F583E0FC89828A83F0088098E82515F5A5
:100EBA0082E43516F583E4F07F00900852E0FE0ED6
:100ECA00900B25EDF0EFA3F0900B27EEF0900B2896
:100EDA007434F0900B297456F0900B2AE515F0E55E
:100EEA0016A3F0758205121F7775820122AF83E57A
:100EFA0082900855F0EFA3F0900855E0FEA3E0FFBA
:100F0A007C007D008E828F83E0FB7A00C3EC9BED30
:100F1A0064808AF063F08095F050070CBC00E50D00
:100F2A0080E2229008477408F0902D00120CC690B7
:100F3A00083C7457F07408A3F0E4A3F090083FF05B
:100F4A007402A3F09006291209D9E582FF60038F83
:100F5A008222902D06E493FF900857E0FDA3E0FE5D
:100F6A007C00C3ED9FEE9C50047582172290062BDD
:100F7A00E0FF7E0090062CE0FCE42FFFEC3EFE90A2
:100F8A0008477408F0902D00C007C006120CC6D09E
:100F9A0006D0078F048E05900106ECF08E079001AB
:100FAA0007EFF090083C7457F07408A3F0E4A3F03C
:100FBA0090083FF07402A3F09006291209D9E5823D
:100FCA00FF60038F8222758200229008477408F01E
:100FDA00902D08120CC690083C7459F07408A3F0BE
:100FEA00E4A3F090083FF07402A3F09006290209E6
:100FFA00D9E5829008C1F0E0FF75F010A4FDAEF0CB
:10100A0024A1F582EE3408F583E4F0A3F0A3F0A35B
:10101A00F0ED24A1FDEE3408FE8D828E83A3A3A3F6
:10102A00A3E4F0A3F0A3F0A3F074082DF582E43E44
:10103A00F583E4F0A3F0A3F0A3F0740C2DF582E499
:10104A003EF583E4F0A3F0A3F0A3F07E00EE75F082
:10105A0008A4245BFC740835F0FD74012CFAE43D05
:10106A00FB8A828B83E0B507298C828D83E4F08A20
:10107A00828B83F08C828D83A3A3F08C828D83A3D1
:10108A00A3A3F08C828D83A3A3A3A3F0A3F0A3F060
:10109A00A3F00EBE080040B59008C1E075F003A4A5
:1010AA00FEAFF0249BF582EF3408F583E4F0EE24DA
:1010BA009BFEEF3408FF8E828F83A3E4F08E828F2B
:1010CA0083A3A3F0227F00EF75F008A4FDAEF024FD
:1010DA005BFBEE3408FC8B828C83E07003021215F2
:1010EA00ED245BFDEE3408FE8D828E83A3E0FC9036
:1010FA000834E4F08C82C007C006C0051207EED09F
:10110A0005D006D0078D828E83A3A3A3E0FE747F49
:10111A005E4490FDEE30E7067CC07E0080047C00D1
:10112A007E00900836ECF0900837E4F0A3F08D8248
:10113A00C007120820E582D0076003021215EF7576
:10114A00F008A4245BFD740835F0FE74032DFBE45B
:10115A003EFC8B828C83E0F96301808B828C83E96D
:10116A00F09008C2E5D1F0E0FAE07003021215B27D
:10117A00968A017A008D828E83A3A3A3A3E0F88BBB
:10118A00828C83E0FB53037F8D828E83A3E075F00C
:10119A0010A4FEADF024A1F582ED3408F583E0F544
:1011AA0017EE24A1FEED3408FD8E828D83A3A3A33E
:1011BA00A3E0F51874082EF582E43DF583E0FC748B
:1011CA000C2EF582E43DF583E0FE900B2DE9F0EA62
:1011DA00A3F0900B2FE8F0900B30EFF0900B31EB6F
:1011EA00F0900B327400F07400A3F0900B34E51702
:1011FA00F0900B35E518F0900B36ECF0900B37EECB
:10120A00F0758204C007122048D0070FBF080050AB
:10121A00030210D122E5829008C3F09008477408AF
:10122A00F0902D38120CC69008C3E0900104F075B6
:10123A00D708900836E4F09008377410F07427A3A2
:10124A00F07582D0120820E582FF60038F82227F28
:10125A00008F057E01EF902D48938D828E83F00FCB
:10126A00BF070040EC75D70790083674C0F09008A5
:10127A00377410F07427A3F0758210120820E582E3
:10128A00FF60038F822275D70090083674C0F090F1
:10129A0008377410F07427A3F0758290020820E5CD
:1012AA00829008C4F0E075F003A4249BFE7408350C
:1012BA00F0FF0EBE00010F8E828F83E0F582C00719
:1012CA00C00612121F9008477408F0902D40120CA5
:1012DA00C6D006D0078E828F83E0900104F0900872
:1012EA003CE4F0A3F0A3F090083FF0A3F0900000D4
:1012FA000209D97F00EF75F003A4FDAEF0249BFB31
:10130A00EE3408FC8B828C83E070030213D69008BB
:10131A0034E4F08F82C007C006C0051207EED0057C
:10132A00D006D007ED249BFDEE3408FE8D828E8315
:10133A00A3A3E0FE747F5E4490FDEE30E7067CC016
:10134A007E0080047C007E00900836ECF09008371E
:10135A00E4F0A3F08D82C007120820E582D007705E
:10136A006BEF75F003A4249BFD740835F0FE74023C
:10137A002DFDE43EFE8D828E83E0FC7B00630480BB
:10138A008D828E83ECF09008C5E5D1F0E0FCE06038
:10139A003BB2967B008F020A8D828E83E0FD530555
:1013AA007F900B25ECF0EBA3F0900B27E4F0900B69
:1013BA0028EAF0900B29EDF0900B2A7400F07400E3
:1013CA00A3F0758209C007121F77D0070FBF02006A
:1013DA0050030212FF22AF83E5829008C9F0EFA3FF
:1013EA00F09008CBE4F0A3F09008CDF09008CEF08E
:1013FA009008C9E0F53AA3E0F53BAC3AAD3B90085A
:10140A00C8E075F008A4245BFA740835F0FB90086C
:10141A00C6E0F538A3E0F5399008CBE0F534A3E04F
:10142A00F535C3E5349538E5359539400122C002D2
:10143A00C003E534253AF582E535353BF583E0FB13
:10144A009008CF74FC5BF074035BF5349008D0F01D
:10145A009008D1E4F0A3F0A3F0A3F07403B534022A
:10146A008006D003D002800BD003D0029008D0E5CA
:10147A003404F0C002C0039008CBE0FAA3E0FB7486
:10148A00012AF534E43BF5359008D0E0F536753796
:10149A0000D003D002C3E53795365054C002C003CA
:1014AA00AA377B00EA2534FAEB3535FBEA2CF582BC
:1014BA00EB3DF583E0F8E4F9FAFBE537C40354F8A9
:1014CA00FF8FF005F0800CE828F8E933F9EA33FADF
:1014DA00EB33FBD5F0F19008D1E048F0A3E049F0F6
:1014EA00A3E04AF0A3E04BF00537D003D00280A571
:1014FA009008CDE0FF9008CFE0FEE4BEC00104F5FD
:10150A003779008F34753500E5376008753C017509
:10151A003D008005E4F53CF53DC002C003E534C357
:10152A00953CF8E535953DFB89027E00C3EA98EEC5
:10153A0064808BF063F08095F0D003D002500309E9
:10154A0080C19008CFE0FFBF04028063BF08030296
:10155A0015FDBF14030216E1BF18030216E1BF24EA
:10156A00030216E1BF28030216E1BF34030216E1A3
:10157A00BF44030216E1BF64030216E1BF7403020B
:10158A0016E1BF80030216E1BF84030216E1BF9091
:10159A00030216E1BF94030216E1BFA0030216D2AA
:1015AA00BFB0030216E1BFC0030216DB0216E190C8
:1015BA0008D1E0F8A3E0F9A3E0FEA3E0FFC3E994B1
:1015CA00FFEE9400EF94004008780079FF7E007FD8
:1015DA0000B8010CB90009BE0006BF00030216E1FB
:1015EA00B8070CB90009BE0006BF0003D38001C3C7
:1015FA000216E19008CEE07032C004C00574042AD5
:10160A00FEE43BFF9008D1E0F8A3E0F9A3E0FCA3D5
:10161A00E0FD8E828F83E8F0E9A3F0ECA3F0EDA35E
:10162A00F09008CE7401F0D005D0049008D1E0F80B
:10163A00A3E0F9A3E0FEA3E0FFC3743898E499E4B9
:10164A009EE49F50030216E1E8240A83F582E82407
:10165A003D83F583E473E1E1E1E1E1E1E1E1E1E127
:10166A00E1E1E1E1E1E1E1E1E1E1E1E1E1E1E1E160
:10167A00E1E1E1E1E1E1E1E1E1E1E1E1E1E1E1E150
:10168A00E1E1E1E1E1E1E1E1E1E1E1E1E1E1E1160B
:10169A0016161616161616161616161616161616E0
:1016AA0016161616161616161616161616161616D0
:1016BA0016161616161616161616161616161616C0
:1016CA0016161616161616169008CDE02401F08086
:1016DA00069008CDE014F09008D0E0FF7E000FBF1E
:1016EA0000010E9008CBE0F8A3E0F99008CBEF28B0
:1016FA00F0EE39A3F0021422E5829008D5F09008A2
:10170A00477408F0902D28120CC69008D5E075F0A1
:10171A0008A4245BFE740835F0FF74022EFEE43F31
:10172A00FF8E828F83E0900104F090083C74D6F01B
:10173A007408A3F0E4A3F090083FF0A3F090062900
:10174A00C007C0061209D99008477408F0902D30D6
:10175A00120CC6D006D0078E828F83E0900104F067
:10176A00900106E4F09001077402F090083C74D6E8
:10177A00F07408A3F0E4A3F090083FF07402A3F019
:10178A009006291209D9E582FF60038F82227E0022
:10179A007F009008D6E0FCA3E0FDC3EE9CEF9D50CD
:1017AA00070EBE00ED0F80EA9008D5E0FF75F0083D
:1017BA00A4245BFB740835F0FE8B828E83A3A3E01E
:1017CA00FA8B828E83A3E0FE900B25ECF0EDA3F05A
:1017DA00900B27EFF0900B28EAF0900B29EEF0908F
:1017EA000B2A7429F07406A3F0758207C007121F2A
:1017FA0077D0079008D6E0FDA3E0FE9008C6EDF08A
:10180A00EEA3F09008C8EFF09006291213E0758253
:10181A000022222222E5829008DCF09008DDE4F022
:10182A009008DCE0FFFE75F003A4F51985F01A8F25
:10183A001E751D00900064C007C00612060B9000BA
:10184A006412060B851E82120FFB851E821206DCAD
:10185A00D006D0077900900001C007C006C0011267
:10186A00060BD001D006D0078F82C007C006C00180
:10187A0012072CE582D001D006D007600609B964A8
:10188A000040D3B964108F82C007C006120648D040
:10189A0006D007021D919008DCE0F9900834E4F0C4
:1018AA008982C007C006C0011207EE120CFDA88289
:1018BA00D001D006D0079008DDE8F0E86003021DE9
:1018CA0048C006E975F010A4F8AEF024A1F51BEEA5
:1018DA003408F51C900631E0FA7B007C007D008517
:1018EA001B82851C83EAF0EBA3F0ECA3F0EDA3F0D6
:1018FA00E824A1F8EE3408FE740428F51BE43EF54A
:10190A001C900632E0FA7B007C007D00851B8285F4
:10191A001C83EAF0EBA3F0ECA3F0EDA3F074082823
:10192A00F51BE43EF51C900633E0FA7B007C007D53
:10193A0000851B82851C83EAF0EBA3F0ECA3F0ED93
:10194A00A3F0740C28F8E43EFE900634E0FD7C0017
:10195A007B007A0088828E83EDF0ECA3F0EBA3F093
:10196A00EAA3F0900629C007C006C001120EF7D0FC
:10197A0001D006902D12E49329F51B851B82C00124
:10198A00120D57AE82D001D0079008DDEEF0EED0EE
:10199A00066003021D48E975F003A42429FC7408B3
:1019AA0035F0FD8C828D83A3E51BF0C007C006C00D
:1019BA0001120DD1900629120EF7D00190084E742B
:1019CA0029F07406A3F0900850E4F07402A3F09092
:1019DA000852E9F0900629C001120DF4120F2DAD3C
:1019EA0082D001D006D0079008DDEDF0ED60030249
:1019FA001D4890062BE0FD7C0090062CE0FA7B0047
:101A0A00900B25EB2DF0EA3CA3F009900B27E51B80
:101A1A00F0900B28E9F0900B2974AAF0900B2A7425
:101A2A0029F07406A3F0758206121F77900AE0E483
:101A3A00F0A3F07C007D0090062BE0FB7A00900674
:101A4A002CE0F9E42BFBE93AFAC3EC9BED9A500738
:101A5A000CBC00E30D80E090062EE0F582120DA288
:101A6A0090062BE0FD7C0090062CE0FAE42DFDEABE
:101A7A003CFC8D028C0378007900C3E89AE99B50FC
:101A8A002BC005C004E824E0F51BE93408F51CE87E
:101A9A002429F582E93406F583E0851B82851C83B7
:101AAA00F008B8000109D004D00580CE900629E0DC
:101ABA009008DEF0E4A3F09008DCE0FB75F003A4E4
:101ACA00F52085F0218B268D248C259008DEE0F503
:101ADA001BA3E0F51CC3E51B9524E51C95254003D3
:101AEA00021D27E51B24E0F51BE51C3408F51C90B4
:101AFA000AE2E51BF0E51CA3F0851B82851C83A383
:101B0A00E0F51F7404B51F0280227405B51F028018
:101B1A00797421B51F03021CAA7424B51F03021C81
:101B2A00D77425B51F03021CE6021CF5A81BAA1CC4
:101B3A0088228A23900AE0E522F0E523A3F09008A0
:101B4A00D8E522F0E523A3F08B82C00312181CD03B
:101B5A0003852282852383A3A3A3A3A3E0FABA025F
:101B6A00028003021D02EB75F003A4249BF974089A
:101B7A0035F0FA09B900010A852282852383A3A3D5
:101B8A00E0F889828A83F0021D02851B82851C8304
:101B9A00C003120EF7D003900AE0E0F9A3E0FA8935
:101BAA00828A83A3A3A3A3A3E0FABA03028003024F
:101BBA001C5AA81BA91C740228F522E439F52385AE
:101BCA002282852383E0F920E703021D027900E9D6
:101BDA0075F008A4245BF8740835F0FD88828D83BB
:101BEA00E0600609B9080040E6C003E975F008A4F8
:101BFA00245BFC740835F0FD74032CF527E43DF5ED
:101C0A0028852282852383E0FB53037F85278285EB
:101C1A002883EBF08C828D837401F0042CF527E481
:101C2A003DF528900AE0E0F8A3E0FB88828B83A3C5
:101C3A00A3E0FB852782852883F08C828D83A3E528
:101C4A0026F08982C003121702D003D003021D02B4
:101C5A00BA0A028003021D02AC1BAD1C8C828D8362
:101C6A00A3A3E0FA20E703021D028C828D83A3A3BB
:101C7A00A3E0FD5305037C00BD0205BC00028002FF
:101C8A008076E520249BFCE5213408FD8C828D8337
:101C9A00A3A353027FEAF08C828D837401F08058EB
:101CAA00900AE0E0FCA3E0FD900AE0E0F5F0A3E092
:101CBA0045F06044A91BAA1C9008DAE9F0EAA3F0EF
:101CCA008C828D83C00312181DD003802B851B8242
:101CDA00851C83C003120EF7D003801C851B8285E6
:101CEA001C83C003120EF7D003800D851B82851C4E
:101CFA0083C003120EF7D003900AE2E0FCA3E0FDD2
:101D0A008C828D83E0FC7D009008DEE0F9A3E0FA86
:101D1A009008DEEC29F0ED3AA3F0021AD59008DC1F
:101D2A00E0FD75F003A4249BFB740835F0FC8B825C
:101D3A008C83E060058D821212A9758200228E05BD
:101D4A000D9008DDE0FC900B25E4F0A3F0900B2742
:101D5A00EDF0900B28ECF0900B2974EEF0900B2A22
:101D6A00E4F0A3F0758203C007C006121F77E519D5
:101D7A002429F582E51A3408F5837402F075820184
:101D8A001206C8D006D007051D74F6251D400302A9
:101D9A00183E9008DDE0F58222900AE4E4F010D8BB
:101DAA0003021EC6E5DB30E349900829E06008E536
:101DBA00E430E003021E39758200120648900829B1
:101DCA007401F0900B25E4F0A3F0900B2704F09037
:101DDA000B28F0900B29F0900B2AE4F0A3F07582FF
:101DEA0001121F7775820012181FE582900AE4F02B
:101DFA00803D900829E0FFBF010040337582001240
:101E0A000FFB758200120648900B25E4F0A3F090B0
:101E1A000B2704F0900B28F0900B29F0900B2AE482
:101E2A00F0A3F0758202121F77900AE47416F0E5A7
:101E3A00DB30E74A90082CE06008E5E530E0030271
:101E4A001EC675820112064890082C7401F0900B88
:101E5A0025E4F0A3F0900B277402F0900B28F09081
:101E6A000B29F0900B2AE4F0A3F0758201121F7778
:101E7A0075820112181FE582900AE4F0803E9008EC
:101E8A002CE0FFBF01004034758201120FFB7582FE
:101E9A0001120648900B25E4F0A3F0900B27740278
:101EAA00F0900B28F0900B29F0900B2AE4F0A3F0A5
:101EBA00758202121F77900AE47416F0900AE4E021
:031ECA00F582227C
:102CF8008006000100001200800600020000120099
:102D08008106000400000900000502000000000020
:102D18008006020309040204000900000000000004
:102D2800210A000000000000810600220000FF00C8
:102D380021200000000007002122030000000000FD
:072D480000C20100000008B9
:012D6400006E
:101ECD0010980122900B81E024E5F582E4340AF5A7
:101EDD0083E599F0900B81E0FF24E5F582E4340A67
:101EED00F583E0FEBE0A028008BF40005003021FCA
:101EFD006E7E00900B81E0FDC3EE9D502EEE24E52D
:101F0D00F582E4340AF583E0FD7C00C006C005C00F
:101F1D0004744FC0E0742DC0E07480C0E0122296AE
:101F2D00E58124FBF581D0060E80C87457C0E0749E
:101F3D002DC0E07480C0E0122296158115811581A7
:101F4D00900AE5E0FEBE6B11900AE6E0FEBE620966
:101F5D00850882850983120006900B81E4F0021E2C
:101F6D00CD900B81EF04F0021ECDE582900B2CF08D
:101F7D009000FE120589900B25E0FEA3E0FF8E82F6
:101F8D008F83C007C006120589D006D0078F057C48
:101F9D00008D828C83C007C006120589900B2CE042
:101FAD00FD7C008D828C83120589900B27E0FD7CD2
:101FBD00008D828C83120589900B28E0FD7C008DAD
:101FCD00828C83120589900B29E0FD7C008D828C1B
:101FDD008312058990000012058990000012058971
:101FED00900000120589900000120589D006D007D7
:101FFD00900B2AE0FCA3E0FD7A007B00C3EA9EEB88
:10200D009F5032EA2CF582EB3DF583E0F87900889C
:10201D00828983C007C006C005C004C003C0021278
:10202D000589D002D003D004D005D006D0070ABA56
:10203D0000CA0B80C790000A020589E582900B3813
:10204D00F09000FE120589900B2DE0FEA3E0FF8EAF
:10205D00828F83C007C006120589D006D0078F0571
:10206D007C008D828C83C007C006120589900B38C9
:10207D00E0FD7C008D828C83120589900B2FE0FD95
:10208D007C008D828C83120589900B30E0FD7C00E5
:10209D008D828C83120589900B31E0FD7C008D8241
:1020AD008C83120589900B34E0FD7C008D828C832E
:1020BD00120589900B35E0FD7C008D828C83120515
:1020CD0089900B36E0FD7C008D828C831205899002
:1020DD000B37E0FD7C008D828C83120589D006D0F4
:1020ED0007900B32E0FCA3E0FD7A007B00C3EA9E73
:1020FD00EB9F5032EA2CF582EB3DF583E0F8790049
:10210D0088828983C007C006C005C004C003C00211
:10211D00120589D002D003D004D005D006D0070A0D
:0C212D00BA00CA0B80C790000A020589A6
:0A2D4F0030782530325820000A00C9
:012D6500006D
:10213900AF82AE83ADF0FC900B3DEFF0EEA3F0ED76
:10214900A3F0ECA3F0900B41E4F0A3F0A3F0A3F00B
:10215900900B39E0FCA3E0FDA3E0FEA3E0FF7B20A8
:10216900C003900B3DE0F8A3E0F9A3E0FAA3E0FB7C
:10217900900B45235401F0E828F8E933F9EA33FADA
:10218900EB33FB900B3DE8F0E9A3F0EAA3F0EBA3F6
:10219900F0900B41E0F8A3E0F9A3E0FAA3E0FBE833
:1021A90028F8E933F9EA33FAEB33FB900B41E8F00D
:1021B900E9A3F0EAA3F0EBA3F0D003900B45E060AC
:1021C90008900B41E043E001F0900B41E0F534A3A6
:1021D900E0F535A3E0F536A3E0F537C3E5349CE532
:1021E900359DE5369EE5379F401F900B41E534C389
:1021F9009CF0E5359DA3F0E5369EA3F0E5379FA356
:10220900F0900B3DE043E001F01BEB600302216914
:10221900900B3DE0FCA3E0FDA3E0FEA3E08C828DE2
:04222900838EF0228E
:06003700E478FFF6D8FD9D
:100015007902E94400601B7A01902D64788075A00F
:100025000BE493F2A308B8000205A0D9F4DAF2753F
:02003500A0FF2A
:10222D0020F71130F6138883A88220F509F6A883CC
:0B223D007583002280FEF280F5F02285
:10003D007800E84400600A790075A006E4F309D859
:10004D00FC7880E84405600C7906900600E4F0A386
:04005D00D8FCD9FAF8
:02000600E473A1
:10224800C0338581337E008E83120589D03322AF57
:10225800F0AE83E582900B48F0EEA3F0EFA3F09088
:102268000B48E0FDA3E0FEA3E0FF900B47E0FC90E5
:102278000B5CE4F0A3F0A3F0900B5FEDF0EEA3F09D
:10228800EFA3F0900B62ECF090224802239FC0333A
:10229800E581F53324FBFF900B5CE4F0A3F0A3F099
:1022A800E53324FBF8900B5FE6F008E6A3F008E6B8
:1022B800A3F0900B62EFF090224812239FD03322B4
:1022C800E582900B58F0E0FF900B4EE0C0E0A3E0F1
:1022D800C0E0A3E0C0E01222E3800D900B4CE0C008
:1022E800E0A3E0C0E08F8222158115811581900B53
:1022F80056E02401F0A3E03400F022E582900B5967
:10230800F0E02430FF24C6500D74072FFF900B4BCC
:10231800E060034307208F820222C8E582900B5AAF
:10232800F0E0FFC4540FF582C007122303D007530F
:10233800070F8F82022303E582900B5BF0900B510D
:10234800E0FCA3E0FDA3E0FEA3E0FF900B55E0FB5B
:10235800753420900B5BE0F98B00E828F8EF2354E4
:102368000148FBEC2CFCED33FDEE33FEEF33FFC3ED
:10237800EB994007EBC399FB430401E53414FA8A4F
:102388003470D5900B51ECF0EDA3F0EEA3F0EFA371
:10239800F0900B55EBF022AF83E582900B63F0EFE2
:1023A800A3F0900B63E0FEA3E0FF900B4CEEF0EF80
:1023B800A3F0900B5CE0FDA3E0FEA3E0FF900B4EC2
:1023C800EDF0EEA3F0EFA3F0900B56E4F0A3F0903D
:1023D8000B5FE0FDA3E0FEA3E0FF8D828E838FF00C
:1023E800122CD8FC900B5F74012DF0E43EA3F0EFA3
:1023F800A3F0EC7003022C94BC25028003022C8C01
:10240800900B65E4F0900B66F0900B67F0900B680A
:10241800F0900B69F0900B6AF0900B6BF0900B6CDE
:10242800F0900B6EF0900B6FF0A3F0900B7114F01E
:10243800A3F0900B5FE0FDA3E0FEA3E0FF8D828E8A
:10244800838FF0122CD8FBA3AD82AE83900B5FED87
:10245800F0EEA3F0EFA3F0900B75EBF0BB25088B23
:10246800821222C80223D7BB30005003022538EB62
:1024780024C65003022538900B71E0F529A3E0F536
:102488002A74FFB52963B52A60C005C006C0079045
:102498000B6FE0FAA3E0FF900B7EEAF0EFA3F09059
:1024A800000AC005C003122CB8AE82AF83D003D097
:1024B800058B027D00EA2EFEED3FFFEE24D0FEEFF5
:1024C80034FFFF900B6FEEF0EFA3F0D007D006D0EB
:1024D80005900B6FE0F5F0A3E045F060030224459A
:1024E800900B667401F0022445C005C006C0079031
:1024F8000B7EE529F0E52AA3F090000AC006C00586
:10250800C003122CB8AA82AF83D003D005D0067EB0
:1025180000EB2AFAEE3FFFEA24D0FAEF34FFFF90EF
:102528000B71EAF0EFA3F0D007D006D005022445DE
:10253800900B75E0FBBB2E2FC005C006C007900BA3
:1025480071E0FAA3E0FFBAFF05BFFF028009D007D8
:10255800D006D005022445D007D006D005900B71CF
:10256800E4F0A3F0022445BB61004014EB2485404D
:102578000F900B7574DF5BF0900B4B7401F08005C6
:10258800900B4BE4F0900B75E0FBBB20028075BB11
:102598002B028067BB2D028059BB4202806FBB4370
:1025A80002807CBB440302282FBB4603022855BB8C
:1025B8004803022445BB490302282FBB4A030224CF
:1025C80045BB4C028050BB4F0302283DBB50030261
:1025D800279DBB53028077BB5403022445BB550398
:1025E800022845BB580302284DBB5A030224450262
:1025F800285D900B657401F0022445900B67740107
:10260800F0022445900B687401F0022445900B6A8F
:102618007401F0022445900B6B7401F0022445907C
:102628000B6AE0600E900B62E014F9F0900B75E70E
:10263800F0800F900B62E024FEFFF08F01900B7585
:10264800E7F0900B75E0F5821222C802286C900B17
:1026580062E024FDFFF08F018705098706098707D7
:102668001919900B51EDF0EEA3F0EFA3F08D828EC7
:10267800838FF0122CA085822985832A900B71E024
:10268800FAA3E0FDBAFF0DBDFF0A900B71E529F032
:10269800E52AA3F0900B65E0704B900B6FE0FAA36E
:1026A800E0FDC3E5299AE52A9D503A900B6FEAC3ED
:1026B8009529F0ED952AA3F0900B6FE0FAA3E0FDC1
:1026C8008A068D071ABAFF011DEE4F601075822029
:1026D800C005C0021222C8D002D00580E3900B6F5B
:1026E800EAF0EDA3F0900B71E0F52CA3E0F52D9046
:1026F8000B51E0FAA3E0FDA3E0FF8A828D838FF0FF
:10270800122CD8F52B603CC3E4952C7480852DF0F1
:1027180063F08095F0502C152C74FFB52C02152D04
:10272800852B821222C8900B51E0FAA3E0FDA3E0AA
:10273800FF0ABA00010D900B51EAF0EDA3F0EFA3E8
:10274800F080AC900B65E0700302286C900B6FE092
:10275800FEA3E0FFC3E5299EE52A9F400302286CFB
:10276800900B6FEEC39529F0EF952AA3F0900B6FAD
:10277800E0FEA3E0FF8E028F051EBEFF011FEA4D9B
:102788007003022864758220C007C0061222C8D0D0
:1027980006D00780E0900B62E024FDFDF08D0187F4
:1027A8002E09872F0987301919900B51E52EF0E56E
:1027B8002FA3F0E530A3F0900B53E0FDBD8000405F
:1027C80008900B757443F08020BD60004008900BA2
:1027D800757450F08013BD40004008900B75744923
:1027E800F08006900B757458F0900B75E0FDF5823B
:1027F800C0051222C875823A1222C8758230122288
:10280800C87582781222C8D005BD4902800EBD5015
:10281800028009900B52E0F582122323900B51E0BD
:10282800F582122323803D900B697401F0900B6EA2
:10283800740AF0802F900B6E7408F08027900B6E4E
:10284800740AF0801F900B6E7410F08017900B6C58
:102858007401F0800F8B821222C88008900B6FEEF3
:10286800F0EFA3F0900B6CE06071900B62E024FC39
:10287800FFF08F018703098705098706098707196C
:102888001919900B51EBF0EDA3F0EEA3F0EFA3F0C4
:10289800900B517459F0742DA3F07480A3F0900B31
:1028A80051E0F52EA3E0F52FA3E0F5307401252EB5
:1028B800FAE4352FFBAF30900B51EAF0EBA3F0EFC1
:1028C800A3F0852E82852F838530F0122CD8FF70D7
:1028D800030223D78F821222C880C3900B6EE07048
:1028E800030223D7900B6AE06047900B62E014F96B
:1028F800F087077E007D007B00900B51EFF0EEA380
:10290800F0EDA3F0EBA3F0900B69E060030229AFB0
:10291800900B51E0FBA3E0A3E0A3E07D007E007FE5
:1029280000900B51EBF0EDA3F0EEA3F0EFA3F080D5
:1029380076900B6BE06028900B62E024FCFFF08F30
:102948000187030987050987060987071919199057
:102958000B51EBF0EDA3F0EEA3F0EFA3F08048905D
:102968000B62E024FEFFF08F01870609870719EF45
:102978003395E0FDFB900B51EEF0EFA3F0EDA3F0E3
:10298800EBA3F0900B69E0701E900B51E0FBA3E005
:10299800FDA3E0A3E07E007F00900B51EBF0EDA3D8
:1029A800F0EEA3F0EFA3F0900B69E06041900B51BB
:1029B800E0FBA3E0FDA3E0FEA3E0FF30E72B900BD4
:1029C80051E0FBA3E0FDA3E0FEA3E0FFC3E49BFB13
:1029D800E49DFDE49EFEE49FFF900B51EBF0EDA318
:1029E800F0EEA3F0EFA3F08005900B69E4F0900BF4
:1029F8006D7401F0900B6EE0F52C75317B75320B20
:102A0800E4F529F52A900B55E4F0852C8212233F32
:102A1800900B6DE07026900B55E0C4F52E85318241
:102A2800853283E0FFE52E4207853182853283EFC8
:102A3800F0153174FFB531021532800C900B55E05A
:102A4800FF853182853283F00529E4B52902052AFC
:102A5800900B6DE0B40100E433F0900B51E0FAA361
:102A6800E0FBA3E0FEA3E0FFEA4B4E4F7097900B0C
:102A78007CE531F0E532A3F0900B73E529F0E52A07
:102A8800A3F0900B6FE0F5F0A3E045F07009900B10
:102A98006F7401F0E4A3F0900B66E0FFE0704790DC
:102AA8000B65E07041852931852A32900B6FE0FA79
:102AB800A3E0FBC007AF310F8F067F00C3EE9AEF8C
:102AC8009BD0075019758220C007C003C00212228C
:102AD800C8D002D003D0071ABAFF011B80D5900BCB
:102AE8006FEAF0EBA3F0900B69E0602075822DC0CF
:102AF800071222C8D007900B6FE024FFFDA3E03433
:102B0800FFFE900B6FEDF0EEA3F08056900B73E094
:102B1800F5F0A3E045F0604A900B67E0602075820D
:102B28002BC0071222C8D007900B6FE024FFFDA32B
:102B3800E034FFFE900B6FEDF0EEA3F08024900BD5
:102B480068E0601E758220C0071222C8D007900B6B
:102B58006FE024FFFDA3E034FFFE900B6FEDF0EE75
:102B6800A3F0900B65E07048900B73E0F531A3E09B
:102B7800F532900B6FE0FAA3E0FBC0078A068B07DB
:102B88001ABAFF011BC3E5319EE5329FD0075053A7
:102B9800EF60067D307E0080047D207E008D82C03F
:102BA80007C003C0021222C8D002D003D00780CACF
:102BB800900B6FE0FEA3E0FF900B73E0F531A3E00C
:102BC800F532C3E5319EE5329F500F900B6FEEC38F
:102BD8009531F0EF9532A3F08011900B6FE4F0A3DC
:102BE800F08008900B6FEAF0EBA3F0900B7CE0FE0E
:102BF800A3E0FF900B73E0F531A3E0F532AA31AD05
:102C080032153174FFB531021532EA4D6045900B2B
:102C18006DE0B40100E433F0900B6DE070140EBE6B
:102C280000010F8E828F83E0C4540FFD900B55F086
:102C3800800E8E828F83E0FD53050F900B55EDF0CB
:102C4800900B55E0F582C007C006122303D006D0CA
:102C58000780AA900B65E070030223D7900B6FE002
:102C6800FEA3E0FF8E038F051EBEFF011FEB4D7014
:102C7800030223D7758220C007C0061222C8D006D7
:102C8800D00780E08C821222C80223D7900B56E02E
:082C9800FEA3E08E82F5832209
:0B2D59003C4E4F20464C4F41543E00C2
:102CA000AA82AB83122CD86003A380F8C3E5829A72
:102CB000F582E5839BF58322AA83AB828BF0900B90
:102CC0007EE0A4F8A9F08AF0E0A429F98BF0A3E053
:082CD000A429F5838882222269
:0D00080075813D122CF4E5826003020003B7
:102CD80020F71430F6148883A88220F507E6A88325
:102CE80075830022E280F7E49322E02275820022B5
:00000001FF
